:020000040800F2
:10000000F84F0220F9020008C5980008DD31000809
:100010004D9800082508000859AA000800000000B3
:10002000000000000000000000000000E5A2000841
:10003000910B000800000000F19F000889A3000850
:100040001303000813030008130300081303000838
:100050001303000813030008130300081303000828
:100060001303000813030008130300081303000818
:100070001303000813030008130300081303000808
:1000800013030008130300081303000813030008F8
:1000900013030008130300081303000813030008E8
:1000A00013030008130300081303000813030008D8
:1000B00013030008E5A300081DA4000813030008AB
:1000C00013030008130300081303000813030008B8
:1000D00013030008E1A90008130300081303000834
:1000E0001303000813030008130300081303000898
:1000F0001303000813030008130300081303000888
:100100001303000813030008130300081303000877
:100110001303000813030008130300081303000867
:1001200013030008010B0008130300081303000861
:100130001303000813030008130300081303000847
:100140001303000813030008130300081303000837
:100150001303000813030008130300081303000827
:100160001303000813030008130300081303000817
:100170001303000813030008D5090008000000005D
:1001800013030008130300081303000813030008F7
:1001900013030008130300081303000813030008E7
:1001A00013030008130300081303000813030008D7
:1001B00013030008130300081303000813030008C7
:1001C00013030008130300080000000013030008D5
:1001D00013030008130300081303000813030008A7
:1001E0001303000813030008130300081303000897
:1001F000130300081303000800F002F800F06DF884
:100200000AA090E8000C82448344AAF10107DA4571
:1002100001D100F062F8AFF2090EBAE80F0013F056
:10022000010F18BFFB1A43F001031847B427010060
:10023000D42701000A444FF0000C10F8013B13F0E2
:10024000070408BF10F8014B1D1108BF10F8015B2F
:10025000641E05D010F8016B641E01F8016BF9D122
:1002600013F0080F1EBF10F8014BAD1C0C1B09D179
:100270006D1E58BF01F801CBFAD505E014F8016BEB
:1002800001F8016B6D1EF9D59142D6D3704700007D
:100290000023002400250026103A28BF78C1FBD88F
:1002A000520728BF30C148BF0B607047642900F077
:1002B000B580752900F0B280782900F0EB806329C1
:1002C00000F05D82732900F06282002070471FB544
:1002D0000CF060FB1FBD10B510BD00F073FA1146A5
:1002E000FFF7F5FF0AF0AEFE00F091FA03B4FFF756
:1002F000F2FF03BC0AF0B8FB0948804709480047F1
:10030000FEE7FEE7FEE7FEE7FEE7FEE7FEE7FEE7C5
:10031000FEE7FEE704480549054A064B7047000022
:100320008DA30008F9010008F8490220F84F0220C7
:10033000F84B0220F84B0220704700000FB404492C
:1003400010B503AA029800F027FA10BC5DF814FB60
:100350006C0002200FB41CB5074B06AA7B4469460B
:100360000090059800F0E9F90020694600F0F8F9DE
:100370001CBC5DF814FB00000104000070B50446CD
:1003800085690068C10601D5302600E02026C00737
:1003900007D070BDD4E9012130469047206A401C47
:1003A00020626D1EF6D570BD70B504468569007873
:1003B000C00707D170BDD4E9012120209047206AF1
:1003C000401C20626D1EF6D570BD70B50C4605460A
:1003D000012A05D02878800600D5EA69002302E0CA
:1003E000012305E05B1C934202D2E05C0028F9D1B6
:1003F000A869E618C01AA861286A18442862284625
:10040000FFF7BCFF04E0D5E9012114F8010B904788
:10041000B442F8D32846FFF7C7FF70BD2DE9F0417D
:100420000646002410687529314616A510D0AFF392
:100430000080002802DA404213A507E031688A07ED
:1004400001D512A502E0490704D511A5012401E058
:10045000AFF3008000210A2206F1240709E0B0FB77
:10046000F2FCB0FBF2F302FB1C003030785418466B
:10047000491C0028F3D123462A463046BDE8F04106
:1004800000F0FCB8000000002D0000002B00000070
:100490002000000070B504460D4621461068AFF3F9
:1004A00000802188090502D50F4A7A4402E00E4AED
:1004B0007A440E32002104F1240305E000F00F0617
:1004C0000009965D5E54491C0028F7D1207800236E
:1004D000000704D5702D02D009B102231132204645
:1004E000BDE8704000F0CAB8632101002DE9F05F5B
:1004F000894604464FF0000ADFF874B1FB44C0F8A7
:1005000020A02046E1688847002874D0252806D01E
:10051000D4E901219047206A401C2062F1E70026BF
:100520005F462046E16888472028054607DB312DD5
:1005300005D2781910F8200C08B10643F1E7B0078E
:1005400001D526F00406C4F81CA00027C4F818A0A2
:100550002A2D09D028460AF080FA38B304EB870820
:10056000303DC8F8185019E059F8041B204604EB38
:1005700087029161E1688847012F054618D1E0693B
:10058000002820DA26F020061DE0D8F8180000EB3D
:10059000800005EB40003038C8F818002046E168BC
:1005A000884705460AF059FA0028EED1012F0AD0F3
:1005B0002E2D08D12046E16888477F1C0546022F72
:1005C00046F02006C4DBA069002803DA404246F06A
:1005D0000106A061F00701D026F010066C2D0BD0AB
:1005E000682D09D04C2D39D06A2D35D0742D35D0D9
:1005F0007A2D33D016E038E0E1682F462046884750
:10060000B842054609D16C2F26D04FF48060E168CE
:10061000064320468847054604E06C2F1AD04FF465
:10062000807006430DB3A5F14100192802D820358A
:1006300046F400664A462946204626604E46FFF7A5
:1006400035FE80B101280BD0F61D26F0070000F121
:10065000080956E74020E4E78020D8E70020D6E7E5
:1006600006F104094DE7284652E7206ABDE8F09FED
:100670003921010070477047704770472DE9F047F6
:100680000D4699469246044600F124080168880602
:1006900004D5E06921F01001216000E00120A842AA
:1006A00001DD471B00E00027A1697A1902EB090070
:1006B000081AA0612078C00602D42046FFF75EFE2B
:1006C000002608E0D4E901211AF806009047206AC4
:1006D000401C761C20624E45F4DB2078C0060AD50B
:1006E0002046FFF74BFE06E0D4E901213020904779
:1006F000206A401C2062381EA7F10107F4DC07E0E5
:10070000D4E9012118F805009047206A401C2062B6
:10071000281EA5F10105F3DC2046FFF745FE2078F1
:10072000000602D50220BDE8F0870120FBE70000AB
:1007300001694A1C02610878704700B58FB0CDE9A5
:1007400001310021059105497944CDE90310114695
:100750006846FFF7CBFE0FB000BD0000E5FFFFFFCE
:100760000A6802F8010B0A60704710B5436913B1BB
:10077000AFF3008001E0FFF728FE012010BD1278E2
:1007800000F124010A7000224A700122EDE711688D
:100790004FF0FF32E9E70000074B70B50D467B4490
:1007A000FFF7CBFF0446284600F008F810B14FF0E1
:1007B000FF3070BD204670BD5FA30000007B00F0DD
:1007C00080007047754600F029F8AE46050069467E
:1007D000534620F00700854618B020B5FFF79AFD74
:1007E000BDE820404FF000064FF000074FF0000832
:1007F0004FF0000B21F00701AC46ACE8C009ACE8B3
:10080000C009ACE8C009ACE8C0098D467047044691
:10081000AFF300802046FFF769FD000000487047F5
:1008200094490220FEE7000070B4BFF34F8FBFF37E
:100830006F8F1A4900200860194D296841F4003172
:100840002960BFF34F8FBFF36F8F16490860BFF366
:100850004F8F081F006843F6FF76134AC0F34E3CE3
:10086000C0F3C90406EA4C11204641EA80731360C4
:10087000401EFAD2BCF1010CF4D2BFF34F8F2868AE
:1008800040F480302860BFF34F8FBFF36F8F07486D
:10089000016841F00401016070BC704750EF00E056
:1008A00014ED00E084ED00E060EF00E09CEF00E07C
:1008B0002DE9F04116460F4605460C4800F0A5FA12
:1008C0000A4C00230A48C4E900036801A060F00153
:1008D000E060B801C4E904032046A36100F012FB04
:1008E000206801680160BDE8F0810000B045022089
:1008F0000000055010B5806B816C496D022906D04F
:10090000012180F83510C16C41F04001C16400F054
:1009100087FA10BD2DE9F84380462A489C460F46C9
:10092000089B1646016841F4800101600068264C6E
:1009300000F480000090A4F150008464A063226859
:10094000106820F0100010600025204820604FF053
:100950000070C4E901054013E560C4E904300011EA
:10096000C4E906C040022062042060620120C4E99C
:100970000A052046256300F0EFFB204600F02EFC20
:10098000134984F83450A7B13B46424620460096AE
:1009900000F091FB2068016841F010010160032222
:1009A0000221392001F07CF8BDE8F843392001F03C
:1009B0006BB801B0334642460348BDE8F04300F04F
:1009C000BBBC0000303802400046022028640240D0
:1009D00028000550014800F03DBA0000B045022053
:1009E00010B5104C20210E4820600020C4E9010100
:1009F000E06020616061A061204600F083FA206819
:100A0000C16821F01E01C1602068C16841F0010188
:100A1000C1602068016841F48041016010BD0000A0
:100A200000000550B04502202DE9F0471C4C8046DF
:100A30001D4616460F46206820F001002060D4F8BD
:100A400000C01CF0010FFAD1DFF85890D9F800C0AF
:100A5000DCF8000020F00100CCF800004FF6FF7039
:100A600002F07CFD2B4632463946404608F030F80D
:100A700000212B463246084609F05AF90021084663
:100A800007F0C8FE08F0F8FAD9F80000016841F054
:100A900001010160206840F001002060BDE8F0879E
:100AA00000000550004602200021084610B507F05E
:100AB000B1FE08F0E1FA06480068016841F0010162
:100AC00001600448016841F00101016010BD0000AF
:100AD00000460220000005500748016821F001018E
:100AE0000160016811F0010FFBD104480068016842
:100AF00021F001010160704700000550004602200E
:100B0000194830B4DFF864C0194B0068194C1A4A10
:100B1000604504D91949096801F4006105E098426B
:100B200016D91749096801F40061002904BF30BCD7
:100B300070474FF40061604588BF124803D898425F
:100B400088BF11480BD901601048406830BC00478D
:100B5000A0428CBF5168116801F40061E5E7A04232
:100B60008CBFD1609160EFE70046022058640240DC
:100B7000B8600240586002400060024004640240D5
:100B8000006402400C6402400864024084000220B9
:100B900070470000B3F5804F30B418BF6FF070415C
:100BA00004D040F8221030BC0020704750F82230AA
:100BB000DFF824C08D8903EA0C03D1E900C44CEAB4
:100BC000041C8C688969240244EA05444CEA040C3C
:100BD0004CEA01011943E4E70000F0CF70B4D1F80A
:100BE00000C050F82C201B4BD1E903561A40D1E924
:100BF000014335431C432C434D692C438D692C43E1
:100C0000CD692C430D6A2C434D6A2C438D6A2C43CD
:100C1000CD6A2C430D6B2C438D6B2C434D6B2C43B9
:100C20002243082B08BF42F0400240F82C200A6BF8
:100C3000B2F5801F05D10A684AB1026842F48012F9
:100C400002600A681AB10268496B1143016070BC06
:100C5000002070478004C0FF00EB820270B453682C
:100C60004FF07E46D1E900C48D8903F040434CEA41
:100C7000041C8C68240244EA05440D8A4CEA0404EE
:100C8000DFF834C00CEB05552C430D7D06EB0565F4
:100C90002C438D692C4323435360026812F4801F58
:100CA00007D04268098A22F470020CEB015111430B
:100CB000416070BC002070470000F0FF4DF8044D0B
:100CC000D1E901320C681343D1E903C24CEA0202B4
:100CD0001A434B6913438A69012C046843EA020CE6
:100CE000CB690A6A496A08D04CEA03031A431143E4
:100CF0006FF30E04214301600BE024F4F8441A431F
:100D000021430A43416802606FF30E014CEA01017E
:100D100041605DF8044B00207047426942EA41019E
:100D2000416100207047F8B514460546D1E900023C
:100D30006FF01F0310438A68C96803EB421242EA4E
:100D4000412108430090286100F05AFC0646A8693A
:100D500010F0200F0ED0B4F1FF3F07D024B100F007
:100D60004FFC801BA04201D90320F8BDA86910F0F8
:100D7000200FF0D10020F8BD2DE9F001D1F804C01A
:100D80006FF00F050B682C015B1E05EB0C1C43EA92
:100D90000C03D1F808C04FEA0428270304EB0C2CFD
:100DA00043EA0C050B8A2604CC68012A826808EB0A
:100DB000034C8B8A097E07EB035306EB01610DD0D0
:100DC000361306EB04342C4344EA0C0C4CEA0303C0
:100DD000194302F070421143816012E0240322F4AF
:100DE0007042A4F58054234322F470021A43C3686E
:100DF00045EA0C0C826003F070434CEA0101194390
:100E0000C160BDE8F0010020704710B5044600F055
:100E1000D8F80020E06484F8350084F8340010BD70
:100E20007047000010B509F075FE0748012100F079
:100E3000DEFB06480178491C017005480068C1685E
:100E400041F00101C16010BD000402408400022095
:100E5000B04502202DE9F0410446006805694FF0D5
:100E60000406274F15F0040F0BD04661E06C40F0EC
:100E70000200E06484F83560A06C0765A06C00F0A7
:100E800058F915F0020F0DD0216802204861E06C7E
:100E900040F00100E06484F83560A06C0765A06C48
:100EA00000F047F915F0100F05D0216810204861B7
:100EB000204600F085F815F0080F05D021680820BD
:100EC0004861204600F0F6F815F0010F08BFBDE8B4
:100ED000F0812068016811F0020F03D0C16821F091
:100EE0001E01C1602068C16821F00101C160216854
:100EF000012048612046FFF795FFBDE8F081000022
:100F0000F5080008002804BF0120704710B504460A
:100F100090F83500002804BF204600F053F8022066
:100F200084F8350020680168244A11400160616935
:100F300060680843D4E9031211430843A1680843D9
:100F4000A1690843216A0843616A0843A16A08430A
:100F5000E16A0843216B0143206802681143016084
:100F6000606810281DD14FF47F42617F207F4FF0D1
:100F70007F4392FAA2F293FAA3F3B2FA82F2B3FA9F
:100F800083F391404FF47F020843A17F92FAA2F2CB
:100F9000B2FA82F29140E27F9A40114308432168FD
:100FA00088612068C16841F01E01C1600020E064D2
:100FB000012084F83500002010BD000007F0E0FF9C
:100FC0007047704734484DF804ED87B0016841F030
:100FD00001010160006800F0010005902F480168E0
:100FE00041F001010160016801F001010591016812
:100FF00041F002010160016801F002010591016800
:1010000041F004010160016801F0040105910168EB
:1010100041F008010160016801F0080105910168D3
:1010200041F0800101600068694600F08000059091
:1010300040200090022001900120029003200390A4
:101040000D200490164800F0B5F94FF46070009040
:101050001448694600F0AEF94FF43C600090124825
:10106000694600F0A7F9082000901048694600F092
:10107000A1F94FF4807000900D48694600F09AF98C
:1010800002224E20114600F00BFD4E2000F0FCFC29
:1010900007B05DF804FB00003438024030380240ED
:1010A000000002400004024000080240000C024020
:1010B000001C0240704770B484684FF0000C039D20
:1010C000802C13D090F83440012C02BF022070BC59
:1010D0007047012480F8344090F83540012C18BF47
:1010E0004FF0020C08D070BC604670474FF480711E
:1010F00041654FF0010CF6E7022480F835400468A2
:10110000266846F4802626600468236103685D60D3
:101110008368402B036803BF9A600268D1609960BE
:101120001CBF0168CA600068016841F001010160EC
:10113000D9E790F83510022903D0802141650120BC
:101140007047052180F835100068016821F0010121
:101150000160002070470000002804BF0120704794
:1011600090F83510022904BF0220704701680A6810
:1011700022F001020A6001684FF0000CC1F800C0C3
:101180000168C1F804C00168C1F808C00168C1F86D
:101190000CC00168C1F810C02121026851610168CA
:1011A0000C4BCAB2103A6FF30901A3FB02320A4B8F
:1011B0001209032A9B5CC36588BF091D3F22816514
:1011C0009A408A60C0F854C080F835C080F834C0B6
:1011D00000207047ABAAAAAAE6C9000870B5044669
:1011E00000F00EFA002C054604BF012070BD002659
:1011F000022084F8346084F835002068016821F00A
:10120000010101602068006810F0010F0FD000F0AC
:10121000F7F9401B052805D920206065032084F8D4
:10122000350070BD2068006810F0010FEFD1216813
:1012300008683E4A1040D4E901231A43D4E9033C2C
:1012400043EA0C031A4363691A43A3691A43E36927
:101250001A43236A1A431043626A042A03D1D4E969
:101260000B231A4310430860236858694FF0010CA0
:1012700020F00701606A014304283ED1A06AA269F8
:10128000014352B1B2F5005F1CD000281CBF0128F9
:1012900002282CD0032826D02FE020B1012807D027
:1012A00002280AD029E0E06A10F0807F1FD124E0F4
:1012B000E06AB0F1C07F20D119E0E06A10F0807FD1
:1012C00015D11AE098B1012808D002280FD00328C0
:1012D00004BFE06AB0F1C07F09D00EE0E06A10F010
:1012E000807F04D109E0E06A10F0807F05D04020C3
:1012F000606584F835C0012070BD596120680C4AD2
:10130000C1B210396FF30900A2FB0121094A090992
:101310000329525CE26588BF001D3F21A065914012
:101320008160666584F835C0002070BD3F8010E0A4
:10133000ABAAAAAAE6C9000830B490F834C00024C9
:10134000BCF1010F02BF022030BC70474FF0010C0E
:1013500080F834C090F835504FF0000C012D1CBFC0
:1013600080F834C0022402D0204630BC70470225E9
:1013700080F83550C0F854C0D0F800C0DCF80050F8
:1013800025F48025CCF80050D0F800C0CCF804300B
:101390008368402B036803BF9A600268D16099603C
:1013A0001CBF0168CA600068016841F0010101606A
:1013B000DAE700002DE9F84FDFF81C920022DFF891
:1013C00014820F2709F1040A4FF0010E0B680EFA80
:1013D00002F52B40AB4240F0F780D1F804C0BCF1DD
:1013E000020F18BFBCF1120F12D14FEAD20C00EB62
:1013F0008C0CDCF820605407E40E07FA04FB26EAA4
:101400000B06D1F810B00BFA04F43443CCF82040AA
:1014100006684FEA420C91F804B003240BF0030B6A
:1014200004FA0CF4A6430BFA0CFB4BEA0606066022
:101430004E68012E18BF022E03D0112E18BF122E97
:1014400011D18668D1F80CB0A6430BFA0CFB4BEA1D
:1014500006068660466826EA05050E79C6F300167C
:10146000964035434560C56825EA04048D6805FA51
:101470000CFC4CEA040CC0F80CC0D1F804C01CF001
:10148000805F7CD0D8F800C04CF4804CC8F800C015
:10149000D8F800C00CF4804CCDF800C022F0030C4A
:1014A0000CF1804505F59835D5F808C89407240F48
:1014B00007FA04F62CEA0606A0F1804CBCF5003CC5
:1014C00048D0A0F1804CBCF5013C08BF4FF0010CA6
:1014D00040D0A0F1804CBCF5023C08BF4FF0020C9C
:1014E00038D0A0F1804CBCF5033C08BF4FF0030C92
:1014F00030D0A0F1804CBCF5043C08BF4FF0040C88
:1015000028D0A0F1804CBCF5053C08BF4FF0050C7D
:1015100020D0A0F1804CBCF5063C08BF4FF0060C73
:1015200018D0A0F1804CBCF5073C08BF4FF0070C69
:1015300010D0A0F1804CBCF5083C08BF4FF0080C5F
:1015400008D0A0F1804CBCF5093C0CBF4FF0090C51
:101550004FF00A0C0CFA04FC4CEA060CC5F808C85B
:10156000D9F800C04C682CEA030C14F4803F18BF73
:101570004CEA030CC9F800C0DAF800C000E023E030
:101580004C682CEA030C14F4003F18BF4CEA030C1F
:10159000CAF800C0114CD4F800C04D682CEA030C06
:1015A00015F4801F18BF4CEA030CC4F800C00C4CA3
:1015B000D4F800C04D682CEA030C15F4001F18BFC6
:1015C0004CEA030CC4F800C0521C102AFFF4FEAE13
:1015D000BDE8F88F44380240003C0140083C01401F
:1015E0000C3C01400069084018BF01207047426967
:1015F000514041617047002A08BF0904816170476A
:10160000014800687047000060000220024801683D
:10161000491C01607047000060000220074810B5B7
:10162000016841F400710160052000F06BFA0F20A1
:1016300000F006F800F0C4F9002010BD003C0240A4
:1016400010B5044607484FF47A720068B0FBF2F018
:1016500001F0A4FA00222146501E00F021FA0020D9
:1016600010BD00005C0002202DE9F05F044690F8F8
:10167000A000012804BF0220BDE8F09F0125022040
:1016800084F8A05084F8A10002EB820000EBC200B5
:1016900004EB8003B1E8C11F3833A3E8C11F91E810
:1016A000C111203983E8C111204607F099FF206855
:1016B000456284F8A150002084F8A000BDE8F09FA6
:1016C000002804BF0120704770B5044690F8A100BF
:1016D000002520B9204684F8A05000F077F80220B9
:1016E00084F8A1002068816921F070418161D4E90A
:1016F00001010843D4E903121143014320688269C0
:1017000011438161206882682F490A408260A08A63
:10171000020420688368D4F818C043EA0C031A4313
:1017200082602068C2680A40C260A08B0204206800
:10173000C368D4F820C043EA0C031A43C26020688F
:1017400002690A400261A08C020420680369D4F88F
:1017500028C043EA0C031A43026120684269114021
:101760004161A08D010420684269236B1A43114333
:10177000416194F83500020294F8360001042068B3
:10178000C36A03F07F43C3622068C36A114394F8BD
:1017900034C043EA0C031943C1622068416B41F035
:1017A000040141632068416B41F0020141632068FC
:1017B000816941F001018161C4F8A450012084F8DD
:1017C000A100002070BD000000F800F0354810B501
:1017D00086B0016841F080610160006800F08060BF
:1017E00005903148016841F400010160016801F48D
:1017F00000010591016841F002010160016801F0FA
:1018000002010591016841F020010160016801F0C9
:1018100020010591016841F040010160016801F07B
:1018200040010591016841F080010160016801F00B
:1018300080010591016841F4807101600068032412
:10184000694600F4807005902020009001200190EE
:10185000CDE902041548FFF7ADFD4FF4806000901C
:101860000220019000206946CDE902040E20049078
:101870000F48FFF79FFD4FF40C6000900D4869463C
:10188000FFF798FD4FF47E4000900B486946FFF744
:1018900091FD40F2F760009008486946FFF78AFD25
:1018A00006B010BD44380240303802400004024007
:1018B0000014024000180240001C024000200240B8
:1018C00070B5044690F8A0008C46012804BF0220A1
:1018D00070BD0125022084F8A05084F8A10003EB1C
:1018E000830000EBC30004EB800000F13801C0F876
:1018F00038C0006E6044C1E90102C86A10441A464B
:10190000C860204607F06CFE2068456284F8A1504C
:10191000002084F8A00070BD70B5044690F8A000C7
:101920008C46012804BF022070BD0125022084F8E6
:10193000A05084F8A10003EB830000EBC300002655
:1019400004EB800000F138012046C1E9006CC1E9D8
:101950000262C1E90AC21A4607F042FE20684562E7
:1019600084F8A150002084F8A06070BD134A41782B
:101970001160111D03780A1D002B04BF00200860B0
:101980001AD043680B60017BC37A090741EA0361FF
:10199000837A41EAC341437B41EA8341837B41EA45
:1019A0004341C37B41EA0341437A41EA0321037A7D
:1019B000007841EA430108431060704798ED00E069
:1019C00000224DF804ED501E114687B000F068F873
:1019D0002948016841F001010160016801F001013D
:1019E0000591016841F002010160016801F0020106
:1019F0000591016841F004010160016801F00401F2
:101A00000591016841F008010160016801F00801D9
:101A10000591016841F010010160016801F01001B9
:101A20000591016841F400110160016801F40011A1
:101A30000591016841F4800101600068694600F485
:101A40008000059002200290002003900120019068
:101A5000800200900948FFF7ADFC20200090084864
:101A60006946FFF7A7FC0820009006486946FFF783
:101A7000A1FC07B05DF804FB3038024000000240D2
:101A800000040240000C0240012200F01F0102FA93
:101A900001F14009800000F1E020C0F8001170471A
:101AA000174B4DF8044D1B68C3F30223C3F1070C19
:101AB000BCF1040F88BF4FF0040C1C1D072C34BF71
:101AC0000023DB1E012404FA0CFCACF1010C0CEA2F
:101AD0000101994004FA03F35B1E1A4011430028E8
:101AE0004FEA0111B8BF00F00F0000F1E020B4BFD1
:101AF00080F8141D80F800145DF8044B7047000056
:101B00000CED00E0074A00F0070011684FF6FF03F4
:101B1000194041EA002040F0FD7040F08060106004
:101B2000704700000CED00E01C4838B5016841F03A
:101B30008051016000681A4C00F0805000902068CD
:101B400040F480302060FFF75BFD0546606810F4CC
:101B5000803F09D1FFF754FD401BB0F57A7F14D8C0
:101B6000606810F4803FF5D0206840F400302060B9
:101B7000FFF746FD0546606810F4003F0BD1FFF704
:101B80003FFD401BB0F57A7F01D9032038BD606866
:101B900010F4003FF3D0002038BD00004038024070
:101BA000007000402DE9F84F04460078DFF82C94CF
:101BB0004FF0000B10F0010F5D4610D0D9F8000077
:101BC00020F40000C9F80000D9F80000616B084358
:101BD000C9F80000606B002808BF4FF0010B2068B7
:101BE000FF4E10F4002F0FD03068E16B20F440104E
:101BF00008433060E06BB0F5801F08BF4FF0010B69
:101C000002D0002808BF0125206810F4801F0FD0E3
:101C10003068216C20F4400008433060206CB0F53F
:101C2000800F08BF4FF0010B02D0002808BF01252C
:101C3000206810F0807F18BF4FF0010B10F0200FCC
:101C400071D0E848016841F0805101600068DFF818
:101C5000988300F080500090D8F8000040F4807025
:101C6000C8F80000FFF7CCFC0746D8F8000010F4D5
:101C7000807F0AD1FFF7C4FCC01B642800F23083C8
:101C8000D8F8000010F4807FF4D0DFF86083D8F833
:101C9000000010F4407031D0218E01F44071814277
:101CA0002CD0D8F80000D8F8001020F4407041F48F
:101CB0008031C8F80010D8F8001021F48031C8F83D
:101CC0000010C8F80000D8F8000010F0010F15D07F
:101CD000FFF796FC0746D8F8000010F0020F08BF87
:101CE00041F2883A0AD1FFF78BFCC01B504500F245
:101CF000F782D8F8000010F0020FF4D0206B4FF4F8
:101D0000407181431CBFD9F8000020F4F81000F0A6
:101D1000EE80C9F80000D8F80000218EC1F30B0155
:101D20000843C8F80000207810F0100F07D0306882
:101D300020F0807030603068A16B084330602088EC
:101D400010F4804FAA4805D00168626E21F440313A
:101D500011430160218811F4004F05D00168A26E83
:101D600021F4402111430160216811F4803F05D026
:101D70000168E26E21F4401111430160216811F401
:101D8000003F05D00168226F21F44001114301603A
:101D9000217811F0400F05D00168626C21F0030139
:101DA00011430160217811F0800F05D00168A26C09
:101DB00021F00C0111430160218811F4807F05D0CE
:101DC0000168E26C21F0300111430160218811F4B7
:101DD000007F05D00168226D21F0C0011143016030
:101DE000218811F4806F05D00168626D21F4407183
:101DF00011430160218811F4006F05D00168A26DC4
:101E000021F4406111430160218811F4805F05D005
:101E10000168E26D21F4405111430160218811F401
:101E2000005F05D00168226E21F44041114301603A
:101E3000216811F4800F05D00168A26F21F0806144
:101E400011430160216811F4001F0AD00168E26F9C
:101E500021F0006111430160E16FB1F1006F08BF33
:101E60000125216811F0080F18BF012511F4802FFA
:101E700005D00168626F21F0407111430160216853
:101E800011F4000F06D00168D4F8802021F08051B1
:101E900011430160216811F0806F06D00168D4F809
:101EA000842021F0005111430160206810F0006F80
:101EB00006D03068D4F8881020F0007008433060F5
:101EC000206810F0805F06D03068D4F88C1020F0C5
:101ED000806008433060BBF1000F47F6C07A4FF4D2
:101EE00040374FF070684FF0E0490ED109E0D9F863
:101EF000001020F4407020F0704021F4F8110843E5
:101F000007E72068B0F1007F67D13A48006820F009
:101F1000806138480160FFF773FB834635480068ED
:101F200010F0006F0BD0FFF76BFBA0EB0B006428E9
:101F300000F2D6812F48006810F0006FF3D12078AE
:101F400010F0010F2C482DD0616B59BB016897FA36
:101F5000A7F201F44031B2FA82F2D140026898FA55
:101F6000A8F39AFAAAFC02F07062B3FA83F3BCFAFF
:101F70008CFCDA40636803FA0CF397FAA7FCBCFA0E
:101F80008CFC01FA0CF1194398FAA8F3B3FA83F325
:101F90009A4099FAA9F30A43A168B3FA83F39940E6
:101FA00011430160216811F4002F03D0E26BB2F5F8
:101FB000801F06D011F4801F49D0216CB1F5800F2D
:101FC00045D1016897FAA7F201F44031B2FA82F2E2
:101FD000D140026802F0E04210E0A5E0083802407B
:101FE0008C38024040380240007000407038024097
:101FF00090380240003802408438024099FAA9F330
:102000009AFAAAFCB3FA83F3BCFA8CFCDA40636850
:1020100003FA0CF397FAA7FCBCFA8CFC01FA0CF15A
:1020200098FAA8FC1943E368BCFA8CFC03FA0CF399
:10203000194399FAA9F3B3FA83F39A401143016063
:102040003168626A21F01F01521E1143316021681C
:1020500011F0807F2ED0016898FAA8F201F070612B
:10206000B2FA82F2D140026899FAA9F39AFAAAFC6C
:1020700002F0E042B3FA83F3BCFA8CFCDA40636806
:1020800097FAA7FBBBFA8BFB03FA0CF3D4F810C04A
:102090000CFA0BFC43EA0C0398FAA8FCBCFA8CFC83
:1020A00001FA0CF1194399FAA9F3B3FA83F39A40B0
:1020B00011430160216811F0007F1CD09AFAAAF246
:1020C000616897FAA7F3B2FA82F2B3FA83F301FADE
:1020D00002F22169994098FAA8F31143E268B3FA31
:1020E00083F39A4099FAA9F31143A268B3FA83F3F0
:1020F0009A40114301607F48006840F080617D484C
:102100000160FFF77DFA83467A48006810F0006F9F
:102110000AD1FFF775FAA0EB0B0064287DD875484B
:10212000006810F0006FF4D0002D77D0714D286852
:1021300020F080502860FFF763FA8346286810F08B
:10214000005F09D0FFF75CFAA0EB0B00642864D8AD
:10215000286810F0005FF5D12068DFF89CC110F40A
:10216000002F01D0E16B21B110F4801F38D0206C1A
:10217000B0BBDCF8000097FAA7F100F44030B1FAE8
:1021800081F1C840DCF8001099FAA9F29AFAAAF392
:1021900001F0E041B2FA82F2B3FA83F3D14062690E
:1021A0009A4097FAA7F3B3FA83F3984098FAA8F302
:1021B0001043A269B3FA83F39A40104399FAA9F243
:1021C000B2FA82F291400843CCF8000030686FF018
:1021D000FF02A16A20F4F85002EB012108433060AD
:1021E000206810F4001F34D0E06FB0F1006F30D1E0
:1021F000DCF8000098FAA8F100F07060B1FA81F103
:10220000C840DCF8001099FAA9F29AFAAAF301F092
:10221000E041B2FA82F2D14001E061E067E0626938
:10222000B3FA83F397FAA7FB9A40236ABBFA8BFBB6
:1022300003FA0BF31A4398FAA8F3B3FA83F398401E
:10224000104399FAA9F2B2FA82F291400843CCF80D
:102250000000207810F0080F32D0DCF8000098FA67
:10226000A8F100F07060B1FA81F1C840DCF800100C
:1022700097FAA7F29AFAAAF301F44031B2FA82F27D
:10228000B3FA83F3D14062699A4097FAA7F3B3FA9D
:1022900083F39940114398FAA8F2B2FA82F290407F
:1022A00099FAA9F20843E169B2FA82F2914008432F
:1022B000CCF800003068E16A20F440300843306018
:1022C000286840F080502860FFF79AF90446286893
:1022D00010F0005F0BD1FFF793F9001B642802D9BF
:1022E0000320BDE8F88F286810F0005FF3D00020CD
:1022F000BDE8F88F00380240883802402DE9F047E9
:10230000DFF8688104460D46D8F8000000F00F00A1
:10231000A8420CD2D8F8000020F00F002843C8F8DB
:102320000000D8F8000000F00F00A84270D120781B
:102330004F4F10F0020F05D03868A16820F0F00070
:1023400008433860207810F0010F4ED0606849498A
:10235000012820D00968022822D011F0020F57D09E
:10236000396821F0030108433860FFF749F9064650
:10237000606841F28839012816D00228386800F0D8
:102380000C0021D0F8B1FFF73BF9801B484528D954
:102390000320BDE8F087096811F4003FE0D137E081
:1023A00011F0007FDCD133E0386800F00C00042825
:1023B0001BD0FFF725F9801B4845E9D8386800F0A5
:1023C0000C000428F5D110E008280ED0FFF718F90A
:1023D000801B4845DCD8386800F00C000828F5D18F
:1023E00003E0386810F00C0FCDD1D8F8000000F0F1
:1023F0000F00A8420FD9D8F8000020F00F002843A2
:10240000C8F80000D8F8000000F00F00A84202D081
:102410000120BDE8F087207810F0040F05D038685F
:10242000E16820F4E05008433860207810F0080F8D
:1024300006D03868216920F4604040EAC100386065
:1024400000F04EF83968F02292FAA2F201F0F001A1
:10245000B2FA82F2D140084A515CC840074908608C
:102460000F20FFF7EDF80020BDE8F087003C0240A8
:102470000838024000380240CEC900085C00022043
:1024800008480949006809684FF4E05292FAA2F23C
:1024900001F4E051B2FA82F2D140044A515CC840E2
:1024A000704700005C00022008380240DEC90008C6
:1024B00008480949006809684FF4604292FAA2F29C
:1024C00001F46041B2FA82F2D140044A515CC84042
:1024D000704700005C00022008380240DEC9000896
:1024E0002148006810F00C01204808BF7047DFF851
:1024F00080C0042904BF60467047082918BF704790
:102500004DF8044D1B4A1168136801F03F0113F4A4
:10251000800F47F6C0730BD0BCFBF1F01168194077
:1025200093FAA3F3B3FA83F3D94000FB01F00AE076
:10253000B0FBF1F01168194093FAA3F3B3FA83F3F7
:10254000D94000FB01F011684FF440325DF8044BB4
:1025500092FAA2F201F44031B2FA82F2D140491C5F
:102560004900B0FBF1F07047083802400024F40045
:1025700040787D01043802402DE9F84FDFF8A88348
:1025800004460078A8F1040710F0010FA7F1040534
:102590005AD0D8F8000000F00C00042809D0D8F870
:1025A000000000F00C0008280CD1386810F4800FEF
:1025B00008D0286810F4003F46D06068002800F07A
:1025C000AF8141E06068B0F5803F04BF286840F407
:1025D00080300AD010B1B0F5A02F11D0286820F4B7
:1025E00080302860286820F4802028606068D0B19E
:1025F000FFF706F80646286810F4003F08D023E0ED
:10260000286840F480202860286840F48030ECE797
:10261000FEF7F6FF801B642800F22581286810F47D
:10262000003FF5D010E0FEF7EBFF0646286810F4F7
:10263000003F09D0FEF7E4FF801B642800F21381FD
:10264000286810F4003FF5D1207810F0020F50D028
:10265000D8F800004FF0F80910F00C0F18D0D8F897
:10266000000000F00C00082804BF386810F4800F48
:102670000ED0E0680028286828D040F001002860CB
:10268000FEF7BEFF0646286810F0020F09D011E0E1
:10269000286810F0020F1CBFE06801280AD000F083
:1026A0003FB9FEF7ADFF801B02287DD8286810F0E7
:1026B000020FF6D0286899FAA9F22169B2FA82F2DB
:1026C00020F0F80091400843286012E020F001005B
:1026D0002860FEF795FF0646286810F0020F08D024
:1026E000FEF78EFF801B02285ED8286810F0020FCC
:1026F000F6D1207810F0080F33D0DFF830926069FF
:102700000028D9F8000016D040F00100C9F80000F8
:10271000FEF776FF0646D9F8000010F0020F20D130
:10272000FEF76EFF801B02283ED8D9F8000010F09B
:10273000020FF5D015E020F00100C9F80000FEF707
:102740005FFF0646D9F8000010F0020F09D0FEF72F
:1027500057FF801B022827D8D9F8000010F0020F7D
:10276000F5D1207810F0040F63D07148016841F072
:102770008051016000686F4E00F08050009030681A
:1027800040F480703060FEF73BFF8146306810F403
:10279000807F0BD1FEF734FFA0EB0900642862D8DC
:1027A000306810F4807F00E05DE0F3D0A068624EF6
:1027B000012804BF306840F0010009D008B10528A5
:1027C00013D0306820F001003060306820F0040041
:1027D0003060A06841F2883AD0B1FEF711FF81461F
:1027E000306810F0020F08D023E0306840F0040099
:1027F0003060306840F00100EAE7FEF701FFA0EB2F
:10280000090050452FD8306810F0020FF5D010E0C5
:10281000FEF7F6FE8146306810F0020F09D0FEF791
:10282000EFFEA0EB090050451DD8306810F0020FF4
:10283000F5D1A069E8B3D8F8001001F00C0108291F
:102840006ED00228286820F0807028600ED0FEF735
:10285000D7FE0446286810F0007F5ED0FEF7D0FE59
:10286000001B022855D90320BDE8F88FFEF7C8FEEB
:102870000646286810F0007F08D0FEF7C1FE801BD6
:102880000228F0D8286810F0007FF6D1D4E90701BB
:1028900047F6C0724FF0FF3392FAA2F20843616A22
:1028A000B2FA82F29140A26A03EB52024FF4403333
:1028B00000E032E093FAA3F3B3FA83F39A401143B2
:1028C0004FF070620843E16A92FAA2F2B2FA82F221
:1028D00091404FF0E0420843216B92FAA2F2B2FA23
:1028E00082F2914008433860286840F08070286088
:1028F000FEF786FE0446286810F0007F0DD1FEF733
:102900007FFE001B0228AED8286810F0007FF6D0AA
:1029100003E0286810F0007FA0D10020BDE8F88F08
:102920000120BDE8F88F00000838024074380240EA
:10293000403802400070004070380240002804BF58
:102940000120704770B5044690F82C000D4628B958
:10295000002084F82D00204600F012F8022084F8B0
:102960002C002068211DFEF7A9F9D4E900022946B0
:10297000FEF702FA012084F82C00002070BD000050
:1029800030484DF804ED87B0016841F00101016065
:10299000006800F0010005902B48016841F0040137
:1029A0000160016801F004010591016841F008012E
:1029B0000160016801F008010591016841F0100112
:1029C0000160016801F010010591016841F02001EA
:1029D0000160016801F020010591016841F04001AA
:1029E00001600068694600F0400005900D200090ED
:1029F0000220019001200290032003900C200490FB
:102A00001248FEF7D7FC4CF203700090104869465C
:102A1000FEF7D0FC4FF6837000900E486946FEF733
:102A2000C9FC4FF63F0000900B486946FEF7C2FC18
:102A300048F23710009009486946FEF7BBFC07B022
:102A40005DF804FB3838024030380240000802408C
:102A5000000C024000100240001402400018024026
:102A600010B5044690F82C00022808BF10BD0220C3
:102A700084F82C002068FEF750F9012084F82C001F
:102A8000002010BD70B5044690F82C000D460228B9
:102A900008BF70BD022084F82C002068FEF743F9BF
:102AA000286802280CBF0520012084F82C00002093
:102AB00070BD002804BF0120704770B5044690F82F
:102AC000450015460E4628B9002084F844002046EB
:102AD00000F01AF8206804F10801FEF77FF8A268F8
:102AE00031462068FEF7B8F8E36A2946D4E90102C6
:102AF000FEF750F8A168206850F8212042F001024A
:102B000040F82120002070BD1A484DF804ED87B030
:102B1000016841F001010160006800F001000590CA
:102B20001548016841F008010160016801F00801E1
:102B30000591016841F0100101600068694600F0EC
:102B4000100005904EF2B370009002200190012019
:102B50000290032003900C2004900848FEF72AFC02
:102B60004FF68070009006486946FEF723FC07B0D8
:102B70005DF804FB3838024030380240000C024057
:102B8000001002404FF0E021042808690CBF40F01B
:102B9000040020F00400086170470000401EB0F1FE
:102BA000807F24BF012070474FF0E0214861F02072
:102BB000044A82F8140D0020886107200861002073
:102BC000704700000FE000E070477047002804BF26
:102BD0000120704710B5044690F83900002804BF62
:102BE000204600F00DF8022084F839002068211DED
:102BF00007F02EFC012084F83900002010BD0000F1
:102C0000094808B5016841F002010160006803222B
:102C1000012100F0020000901D20FEF741FFBDE8F9
:102C200008401D20FEF730BF403802400168CA68E6
:102C300042F00102CA600068016841F001010160D0
:102C400000207047704770B50446006801694FF076
:102C5000000511F0020F1CBFC16811F0020F13D064
:102C60006FF002010161012020762068806910F078
:102C7000030F204602D0FFF7E5FF04E000F0A6F8BE
:102C8000204600F0A4F825762068016911F0040FB1
:102C90001CBFC16811F0040F13D06FF00401016173
:102CA000022020762068806910F4407F204602D000
:102CB000FFF7C8FF04E000F089F8204600F087F82D
:102CC00025762068016911F0080F1CBFC16811F05A
:102CD000080F13D06FF008010161042020762068EE
:102CE000C06910F0030F204602D0FFF7ABFF04E0ED
:102CF00000F06CF8204600F06AF82576206801693B
:102D000011F0100F1CBFC16811F0100F13D06FF03D
:102D100010010161082020762068C06910F4407F0E
:102D2000204602D0FFF78EFF04E000F04FF8204667
:102D300000F04DF825762068016911F0010F1CBFE5
:102D4000C16811F0010F05D06FF00101016120464B
:102D500000F03EF8206801696FF0800511F0800FE7
:102D60001CBFC16811F0800F03D005612046FFF73A
:102D70002BFF2068016911F4807F1CBFC16811F02E
:102D8000800F03D005612046FFF71EFF2068016910
:102D900011F0400F1CBFC16811F0400F05D06FF05B
:102DA00040010161204600F03BF82068016911F004
:102DB000200F1ABFC16811F0200F70BD6FF0200105
:102DC00001612046BDE87040FFF7FFBE70477047C5
:102DD0000849884218BF704710B5074C07A02178F2
:102DE000FDF7ACFA0848018808A0FDF7A7FA002013
:102DF000207010BD04450220840002206672616DBF
:102E0000653A25640D0A0000080002206A706567B3
:102E10005F646174615F6C656E3A25640D0A000041
:102E20007047704770B501680446C8690A688B68C6
:102E300010F00F0F4FF0200551D040F2011C13EAA3
:102E40000C0F7DD010F0010F18BF12F4807F07D057
:102E50004FF0010CC1F820C0E16E41F00101E166C4
:102E600010F0020F18BF13F0010F08D0D4F800C003
:102E70000221CCF82010E16E41F00401E16610F06F
:102E8000040F18BF13F0010F08D0D4F800C00421BC
:102E9000CCF82010E16E41F00201E16610F0080F5D
:102EA0000CD002F0200103F00103194306D023687F
:102EB00008211962E16E41F00801E166E16E002926
:102EC00008BF70BD10F0200F1EBF12F0200F20466B
:102ED00007F0C7FBE06E10F0080F10D10AE010F009
:102EE000200F18BF12F0200F39D02046BDE87040E7
:102EF00007F0B7BB2068806810F0400F29D0206829
:102F0000016821F4907101602068816821F001015D
:102F1000816084F86A502068816811F0400F14D0F5
:102F2000816821F040018160606E70B12D490165BA
:102F3000606EFEF7FEF8002808BF70BD606E00E00E
:102F40000DE0016DBDE8704008472046FFF769FFBE
:102F500070BD2046FFF765FF0020E06670BD10F0F1
:102F6000800F18BF12F0800F2CD094F86900212830
:102F700018BF70BDB4F8520090B1A068B0F5805F82
:102F800004BF20690028E06C14D0411CE164216872
:102F900000788862B4F85200401EA4F8520070BD58
:102FA000086820F0800008602068016841F0400156
:102FB000016070BD0088C0F308008862E06C801C6E
:102FC000E064E7E710F0400F14BF12F0400F70BD4F
:102FD00020460A6822F040020A6084F8695000F036
:102FE000FCF870BD4FA60008002804BF0120704700
:102FF00010B5044690F8690028B9002084F86800EC
:10300000204600F029F8242084F86900206801682F
:1030100021F001010160204607F062FB012808BF92
:1030200010BD606A00281CBF204607F073FA2068B4
:10303000416821F4904141602068816821F02A01B3
:1030400081602068016841F0010101602046BDE80F
:10305000104007F0CCBA000030B50446006887B0D5
:10306000A0F18041B1F588311CBF07B030BD1B48CD
:10307000016841F001010160006800F00100059065
:103080001748016841F01001016000680121154DE9
:1030900000F0100005904FF4007000900220CDE980
:1030A000010103900720694604902846FEF782F943
:1030B0002815694600902846FEF77CF920680168CB
:1030C00041F0200101602520FEF7DEFC03222520CF
:1030D0001146FEF7E5FC07B030BD00003038024075
:1030E00044380240000002402DE9F84F044690F8B1
:1030F0006A00984616460D4620286AD1002D12BF58
:10310000002E0120BDE8F88F94F86800012860D0F7
:10311000012084F868004FF00009C4F86C90222068
:1031200084F86A00FEF76CFAA4F858608246A4F8A6
:103130005A60FF21A068B0F5805F05D07F2250B1B2
:10314000B0F1805F0CD012E02069002808BF40F287
:10315000FF1002D109E02069E8B9A4F85C1006E08C
:103160002069002818BF3F2015D0A4F85C00B4F8EF
:103170005C60F7B2B4F85A0000225346401EA4F82F
:103180005A0020212046CDF8008007F0EFFB28B13F
:103190000320BDE8F88FA4F85C20E8E7A068B0F54C
:1031A000805F04BF206900282068406A19BF38404A
:1031B00005F8010B304025F8020BB4F85A0000283E
:1031C000D8D1202084F86A00002084F86890BDE8F7
:1031D000F88F0220BDE8F88F70477047FEE70000C7
:1031E000114810B586B0016841F0800101600068A7
:1031F00069460E4C00F080000590302000900120C0
:1032000001900290022003902046FEF7D3F801229D
:1032100020462021FEF7EFF9012220461021FEF77B
:10322000EAF906B010BD000030380240001C024030
:1032300070B51C4E05463046316821F4406131605E
:10324000316841F48061316000221021FEF7D3F92A
:10325000002415F0800F05D0012230462021FEF712
:10326000CAF904E0002230462021FEF7C4F96806BE
:10327000050E022007F02AFC012230461021FEF73D
:10328000BAF9022007F022FC002230461021FEF796
:10329000B2F9022007F01AFC601CC4B2082CD8D383
:1032A00070BD0000001C024010B5124C206820F4D4
:1032B00040602060206840F4806020600122204649
:1032C0002021FEF798F9012220461021FEF793F9FC
:1032D000042007F0FBFB002220462021FEF78BF99B
:1032E000042007F0F3FB00222046BDE81040102127
:1032F000FEF781B9001C024010B5124C206820F482
:1033000040602060206840F48060206000222046F9
:103310001021FEF770F9002220462021FEF76BF9FC
:10332000042007F0D3FB012220461021FEF763F9A9
:10333000012220462021FEF75EF9BDE8104004205E
:1033400007F0C4BB001C024070B5294D002428685A
:1033500020F4406028602868286001222021284647
:10336000FEF749F9012007F0B1FB012228461021A0
:10337000FEF741F9012007F0A9FB20212846FEF7BE
:1033800031F900282DD0601CC4B2FA2C23D928684A
:1033900020F440602860286840F4806028600022A3
:1033A00028461021FEF727F9002228462021FEF7A3
:1033B00022F9042007F08AFB012228461021FEF79B
:1033C0001AF9012228462021FEF715F9042007F0FA
:1033D0007DFB012070BD20212846FEF703F900285F
:1033E000D1D1002228461021FEF705F9002070BD3A
:1033F000001C02401B4870B586B0016841F0010115
:103400000160016801F001010591016841F00401CA
:103410000160016801F004010591016841F080013B
:103420000160006803250026694600F080000590D1
:1034300002200124CDE902050B48CDE90046FDF745
:10344000B9FF60036946CDE900060848CDE90245A9
:10345000FDF7B0FF0C20009005486946FDF7AAFF74
:1034600006B070BD30380240000002400008024043
:10347000001C02402DE9F041344C0126344F012854
:10348000DFF8D080344D08BF267001D02078A8B175
:1034900008212846FEF7A6F8B8B104212846FEF711
:1034A000A1F890B14FF400513846FEF79BF860B197
:1034B00001214046FEF796F8012806D0082128464B
:1034C000FEF790F801283ED12AE00A2007F0D8FA4A
:1034D0000020207008212846FEF784F8002804BF49
:1034E0000120BDE8F08104212846FEF77BF8002882
:1034F00004BF0220BDE8F0814FF400513846FEF7CA
:1035000071F8002804BF0320BDE8F0810121404686
:10351000FEF768F8012804BF0420BDE8F08112E03E
:1035200004212846FEF75EF801280CD141033846F5
:10353000FEF758F8012806D101214046FEF752F85F
:10354000002808BF26700020BDE8F081700002202E
:103550000008024000000240001C02402DE9F0413A
:10356000104E0746104800243188006820B13846C4
:10357000BDE8F04105F0B0BD708800FB01F5002109
:10358000084605F047F9094930890880002D86BFB3
:10359000B8B20749BDE8F0810880641CA542FBD899
:1035A000BDE8F0812C440220E4440220FEFF0760C5
:1035B000000008602DE9F05F3D4C3E4DA071296888
:1035C00039B105F0F7FDE88A2080288B6080BDE8DE
:1035D000F09F37492C232B254FF0F0094FF4305E34
:1035E00049F2413A4FF448764FF02A0C89884FF45B
:1035F000A0784FF4F07245F2105B45F2103760B1DD
:10360000A4F800805145A4F8029018BFB9422ED109
:103610002381A4F80AC0A58140E0A4F80090514598
:10362000A4F8028018BFB94209D12381B942A4F895
:103630000AC0A58104BFA4F80080628033E0594528
:103640000AD1A4F808E04FF4285060814FF42C50C0
:10365000A0812280668026E0A1F5C850633822D17F
:1036600023816581A4F80CC0228066801BE0594547
:103670000AD1A4F808E04FF4285060814FF42C5090
:10368000A0812680628009E0A1F5C850633805D189
:103690002381A4F80AC0A58126806280B94204BFB4
:1036A0002280A4F802800020BDE8F05F04F024BF6F
:1036B0002C440220E44402202DE9F84F934B1B6870
:1036C0001BB1BDE8F84F05F089BDDFF844A20C0A34
:1036D000DFF84092CBB2D446070ABAF8045009F199
:1036E0000206BCF80C1000F0FF08BCF80AC0A5F5F3
:1036F000134BBBF1410B1CBFA5F5A04BBBF5447BA5
:1037000009D0A5F5A04BBBF5A26B3DD0A5F5C857D8
:10371000633F7CD0F2E0ADF800C0BDF80000ADF82A
:103720000000BDF80000A9F80000ADF80070BDF879
:103730000000ADF80000BDF800003080ADF800805A
:10374000BDF80000ADF80000BDF800003080ADF815
:103750000010BDF80000ADF80000BDF80000A9F8A9
:103760000000ADF80040BDF80000ADF80000BDF865
:1037700000003080ADF80030BDF80000ADF800006A
:10378000BDF800003080B9E0ADF800C0BDF8000021
:10379000ADF80000BDF80000A9F80000ADF8007019
:1037A000BDF80000ADF80000BDF8000030800CF15D
:1037B0000100ADF80000BDF80000ADF80000BDF854
:1037C0000000A9F80000ADF80080BDF80000ADF8D9
:1037D0000000BDF800003080ADF80010BDF800001A
:1037E000ADF80000BDF80000A9F80000ADF80040F9
:1037F000BDF80000ADF80000BDF800003080481CA6
:10380000ADF80000BDF80000ADF8000000E00DE0EC
:10381000BDF80000A9F80000ADF80030BDF80000C8
:10382000ADF80000BDF80000308067E09AF806505F
:1038300025B9BAF80050281A401E80B2ADF800C071
:10384000BDF800C0ADF800C0BDF800C0A9F800C0C8
:103850004FEA102CADF800C0BDF80050ADF8005094
:10386000BDF800503580C0B2ADF80000BDF8005082
:10387000ADF80050BDF800503580ADF800C0BDF87F
:1038800000C0ADF800C0BDF800C0A6F800C0ADF89B
:103890000000BDF80000ADF80000BDF80000308069
:1038A000ADF80010BDF80000ADF80000BDF8000054
:1038B000A9F80000ADF80040BDF80000ADF8000028
:1038C000BDF800003080ADF80030BDF80000ADF864
:1038D0000000BDF800003080ADF80040BDF80000E9
:1038E000ADF80000BDF800003080ADF80030BDF844
:1038F0000000ADF80000BDF800003080BAF8080004
:10390000A9F800003280BDE8F88F0000E4440220EE
:103910002C440220FEFF07602DE9F84F1F46194B8B
:1039200083460C460A981B6833B13B4600905846C4
:1039300005F076FCBDE8F88FA2EB0B01491C8DB2B7
:10394000BC4288BFBDE8F88FDFF83C9086B2DFF854
:103950003CA00AF102082146584604F05BFFB9F882
:103960000800AAF800000020002D05D9A8F8006082
:10397000401C80B28542F9D8601C84B2BC42EAD9AE
:10398000BDE8F88FE44402202C440220FEFF0760CB
:103990002DE9F04F95B005F0C5FDFE4945F2105AEE
:1039A0004FF00508888018B105F096FC04F0B6BC0D
:1039B000F948016841F002010160006801264FF0FA
:1039C000200BCDF838B000F0020013904FF003093F
:1039D000CDF84490F1480EA9CDE90F66FDF7EAFC59
:1039E00004F0F2FCEE4800274FF020416A460160E7
:1039F000EC49C0E901171021C760C0E90471090250
:103A00008761C761C0E908718900C0E90A7189014D
:103A10000763C0E90D711120CDE907075520099012
:103A200015200290CDE90007DD4807A90D970697FC
:103A3000FFF73FF8322007F023F8D320ADF84C0011
:103A4000BDF84C00ADF84C00BDF84C00D64D2880B8
:103A5000AC1C2088ADF84C00BDF84C00CD4B208844
:103A6000ADF84C00BDF84C002088ADF84C00BDF816
:103A70004C004FF6FF7101EA00202188ADF84C1090
:103A8000BDF84C10084319468880A0F51341413910
:103A90007ED0D420ADF84C00BDF84C00ADF84C0001
:103AA000BDF84C0028802088ADF84C00BDF84C00D3
:103AB0002088ADF84C00BDF84C002088ADF84C00D3
:103AC000BDF84C004FF6FF71228801EA0020ADF8E6
:103AD0004C20BDF84C2010439880A0F5A642103A27
:103AE00060D04FF45A40ADF84C00BDF84C00ADF832
:103AF0004C00BDF84C0028802088ADF84C00BDF883
:103B00004C004FF45B40ADF84C00BDF84C00ADF8F4
:103B10004C00BDF84C0028802088ADF84C00BDF862
:103B20004C004FF45C42ADF84C2001EA0020BDF897
:103B30004C20ADF84C20BDF84C202A802288ADF8EE
:103B40004C20BDF84C2010439880B0F5004F0CBFBE
:103B5000A3F804A0504525D0A120ADF84C00BDF835
:103B60004C00ADF84C00BDF84C0028802088ADF822
:103B70004C00BDF84C002088ADF84C00BDF84C005E
:103B800001EA00202188ADF84C10BDF84C1000E08F
:103B900008E008439880A0F5AE41613904BF41F6C2
:103BA00063109880998881A0FCF7C8FB79484FF092
:103BB000B10C8188ED20A1F51342413A00F039861D
:103BC000E2234FF0040EA1F5A642103A01F0AE81B7
:103BD000514544F0818155204FF470412980208067
:103BE000481CAA2128802180411C52202980208045
:103BF000491C082029802080491C01202980208020
:103C00000D204FF4304129802080491C29802080DC
:103C1000491C2980208034204FF43641298020809F
:103C2000491C29802080491C298020800D214FF4C7
:103C3000314028802180401C28802180411C0D209B
:103C40002980208034214FF4374028802180411C76
:103C5000342029802080491C2980208000204FF4B6
:103C6000324129802080491C29802080491C2980DC
:103C7000208024204FF4384129802080481C2421B2
:103C800028802180401C2880218001204FF43F4162
:103C9000298020800F204FF4334129802080491C47
:103CA00029802080491C2980208034204FF439410C
:103CB00029802080491C29802080491C298020805F
:103CC00008204FF4354129802080481C0821288095
:103CD0002180411C08202980208003204FF442418C
:103CE0002980208024204FF43A4129802080491CDB
:103CF00029802080481C24212880218000204FF426
:103D00003C4129802080481C782128802180411C4A
:103D10000020298020804FF43D4129802080491CCB
:103D2000782029802080481C0021288021800020C4
:103D30004FF43E4129802080481C64212880218046
:103D400000204FF4514129802080491C33202980D4
:103D50002080491C002029802080491C3420298093
:103D60002080491C002029802080491C3A2029807D
:103D70002080491C002029802080491C4A2029805D
:103D80002080481C002128802180411C5C20298043
:103D9000208013E02C44022030380240000402400E
:103DA000E0430220040100A0FEFF0760204C4344D2
:103DB0002049443A25780D0A00000000491C29805A
:103DC00000202080481C288081212180411C2980DE
:103DD00000202080491C2980A6202080481C2880A3
:103DE00000212180411C2980E5202080481C28805A
:103DF00001212180411C298013202080491C298019
:103E000001202080491C298054202080491C2980C1
:103E100001202080491C298082202080481C288085
:103E200001212180411C2980CA202080491C298031
:103E300002202080491C298000202080491C2980E4
:103E400002202080481C288001212180411C2980DB
:103E500002202080491C298034202080491C298090
:103E600002202080491C298067202080491C29804D
:103E700002202080491C298084202080491C298020
:103E800002202080491C2980A4202080491C2980F0
:103E900002202080491C2980B7202080491C2980CD
:103EA00002202080491C2980CF202080491C2980A5
:103EB00002202080491C2980DE202080491C298086
:103EC00002202080491C2980F2202080491C298062
:103ED00002202080491C2980FE202080491C298046
:103EE00003202080491C298010202080491C298023
:103EF00003202080491C298033202080491C2980F0
:103F000003202080491C29806D20208000204FF450
:103F1000524129802080491C332029802080481C60
:103F2000002128802180411C342029802080491CC8
:103F3000002029802080491C3A2029802080491CAB
:103F4000002029802080481C4A2128802180411C93
:103F5000002029802080491C5C2029802080491C69
:103F6000002029802080491C812029802080481C35
:103F7000002128802180411CA62029802080491C06
:103F8000002029802080491CE52029802080481CB1
:103F9000012128802180411C132029802080491C78
:103FA000012029802080491C542029802080491C20
:103FB000012029802080491C822029802080491CE2
:103FC000012029802080491CCA2029802080491C8A
:103FD000022029802080491C002029802080491C43
:103FE000022029802080481C012128802180411C3A
:103FF000022029802080491C342029802080491CEF
:10400000022029802080491C672029802080491CAB
:10401000022029802080491C842029802080491C7E
:10402000022029802080491CA42029802080491C4E
:10403000022029802080491CB72029802080491C2B
:10404000022029802080491CCF2029802080491C03
:10405000022029802080491CDE2029802080491CE4
:10406000022029802080491CF22029802080491CC0
:10407000022029802080491CFE2029802080491CA4
:10408000032029802080491C102029802080491C81
:10409000032029802080491C332029802080491C4E
:1040A000032029802080491C6D2029802080002049
:1040B0004FF4534129802080491C332029802080DF
:1040C000491C002029802080491C34202980208020
:1040D000491C002029802080491C3A20298020800A
:1040E000481C002128802180411C4A2029802080F2
:1040F000491C002029802080491C5C2029802080C8
:10410000491C002029802080491C81202980208092
:10411000491C002029802080491CA620298020805D
:10412000491C002029802080491CE520298020800E
:10413000491C012029802080491C132029802080CF
:10414000491C012029802080491C5420298020807E
:10415000491C012029802080491C82202980208040
:10416000491C012029802080491CCA2029802080E8
:10417000491C022029802080491C002029802080A1
:10418000491C022029802080491C01202980208090
:10419000491C022029802080491C3420298020804D
:1041A000491C022029802080491C6720298020800A
:1041B000491C022029802080491C842029802080DD
:1041C000491C022029802080491CA42029802080AD
:1041D000491C022029802080491CB720298020808A
:1041E000491C022029802080481CCF212880218062
:1041F000411C022029802080491CDE20298020804B
:10420000491C022029802080491CF220298020801E
:10421000491C022029802080481CFE212880218002
:10422000401C032128802180411C102029802080EF
:10423000491C032029802080481C332128802180AC
:10424000411C032029802080491C6D20298020806A
:1042500000214FF4544028802180411C33202980C4
:104260002080491C002029802080491C342029807E
:104270002080491C002029802080481C3A21288069
:104280002180401C002128802180411C4A20298057
:104290002080491C002029802080491C5C20298026
:1042A0002080491C002029802080481C81212880F2
:1042B0002180411C002029802080491CA6202980C3
:1042C0002080491C002029802080481CE52128806E
:1042D0002180401C012128802180411C132029803D
:1042E0002080491C012029802080481C54212880DE
:1042F0002180411C012029802080491C82202980A6
:104300002080481C012128802180411CCA2029804E
:104310002080481C022128802180401C0021288008
:104320002180401C022128802180411C01202980FD
:104330002080491C022029802080491C34202980AB
:104340002080481C022128802180411C6720298070
:104350002080491C022029802080491C842029803B
:104360002080481C022128802180411CA420298013
:104370002080491C022029802080491CB7202980E8
:104380002080481C022128802180411CCF202980C8
:104390002080491C022029802080491CDE202980A1
:1043A0002080491C022029802080491CF22029807D
:1043B0002080481C022128802180401CFE2128806A
:1043C0002180411C032029802080481C1021288046
:1043D0002180401C032128802180411C332029801A
:1043E0002080491C032029802080491C6D202980C1
:1043F000208000214FF4554028802180411C33202B
:1044000029802080481C002128802180411C3420E4
:1044100029802080491C002029802080491C3A20C6
:1044200029802080491C002029802080491C4A20A6
:1044300029802080491C002029802080491C5C2084
:1044400029802080481C002128802180411C812057
:1044500029802080491C002029802080491CA6201A
:1044600029802080481C002128802180411CE520D3
:1044700029802080491C012029802080491C13208C
:1044800029802080491C012029802080481C54213B
:1044900028802180411C012029802080491C822005
:1044A00029802080481C012128802180411CCA20AD
:1044B00029802080491C022029802080491C00205E
:1044C00029802080491C022029802080491C01204D
:1044D00029802080491C022029802080481C34210A
:1044E00028802180411C022029802080491C6720CF
:1044F00029802080481C022128802180411C8420A2
:1045000029802080491C022029802080491CA42069
:1045100029802080491C022029802080481CB72146
:1045200028802180411C022029802080491CCF2026
:1045300029802080491C022029802080481CDE21FF
:1045400028802180411C022029802080491CF220E3
:1045500029802080491C022029802080481CFE21BF
:1045600028802180411C032029802080491C1020A4
:1045700029802080491C032029802080491C332069
:1045800029802080491C032029802080481C6D211F
:104590002880218000214FF4564028802180401C33
:1045A000332128802180401C002128802180411C4B
:1045B000342029802080481C002128802180411C33
:1045C0003A2029802080491C002029802080491C15
:1045D0004A2029802080491C002029802080491CF5
:1045E0005C2029802080491C002029802080491CD3
:1045F000812029802080491C002029802080491C9E
:10460000A62029802080491C002029802080491C68
:10461000E52029802080491C012029802080491C18
:10462000132029802080491C012029802080491CDA
:10463000542029802080491C012029802080491C89
:10464000822029802080491C012029802080481C4C
:10465000CA2128802180411C022029802080491CF9
:10466000002029802080491C022029802080491CAC
:10467000012029802080491C022029802080491C9B
:10468000342029802080491C022029802080491C58
:10469000672029802080491C022029802080491C15
:1046A000842029802080491C022029802080491CE8
:1046B000A42029802080491C022029802080491CB8
:1046C000B72029802080491C022029802080491C95
:1046D000CF2029802080491C022029802080491C6D
:1046E000DE2029802080491C022029802080491C4E
:1046F000F22029802080491C022029802080491C2A
:10470000FE2029802080491C032029802080481C0D
:10471000102128802180411C032029802080491CF1
:10472000332029802080481C032128802180401CC0
:104730006D212880218055214FF4704028802180F0
:10474000411CAA2029802080491C522029802080D9
:10475000491C082029802080491C002029802080B5
:10476000CC204FF4314129802080491C0020298031
:10477000208005204FF436412980208070204FF49E
:10478000374129802080491C2980208001204FF456
:10479000384129802080491C032029802080491C21
:1047A00029802080491C2980208002204FF43C4130
:1047B00029802080491C002029802080491C2980D4
:1047C0002080D0204FF4494129802080491C0220BC
:1047D00029802080491C502029802080491C298064
:1047E0002080491C2980208000204FF454512980CA
:1047F000208055204FF46851298020804FF4885044
:10480000ADF84C00BDF84C00ADF84C00BDF84C00C4
:104810002880782006F05AF94FF42450ADF84C0067
:10482000BDF84C00ADF84C00BDF84C00288003F0FA
:1048300075BDCF21ADF84C10BDF84C10ADF84C1043
:10484000BDF84C102980ADF84C70BDF84C10ADF897
:104850004C10BDF84C102180C123ADF84C30BDF890
:104860004C10ADF84C10BDF84C1021803021ADF843
:104870004C10BDF84C20ADF84C20BDF84C202280E7
:10488000ADF84C00BDF84C00ADF84C00BDF84C0044
:1048900028806420ADF84C00BDF84C00ADF84C0009
:1048A000BDF84C002080ADF84C90BDF84C00ADF840
:1048B0004C00BDF84C0020801220ADF84C00BDF833
:1048C0004C00ADF84C00BDF84C0020808120ADF8C4
:1048D0004C00BDF84C00ADF84C00BDF84C002080F9
:1048E000E820ADF84C00BDF84C00ADF84C00BDF828
:1048F0004C0028808520ADF84C00BDF84C00ADF888
:104900004C00BDF84C0020801022ADF84C20BDF8C2
:104910004C00ADF84C00BDF84C0020807A20ADF87A
:104920004C00BDF84C00ADF84C00BDF84C002080A8
:10493000CB20ADF84C00BDF84C00ADF84C00BDF8F4
:104940004C0028803920ADF84C00BDF84C00ADF883
:104950004C00BDF84C0020802C20ADF84C00BDF878
:104960004C00ADF84C00BDF84C002080ADF84C7008
:10497000BDF84C00ADF84C00BDF84C002080342050
:10498000ADF84C00BDF84C00ADF84C00BDF84C0043
:1049900020800220ADF84C00BDF84C00ADF84C0072
:1049A000BDF84C002080F720ADF84C00BDF84C005D
:1049B000ADF84C00BDF84C002880ADF84CB0BDF807
:1049C0004C00ADF84C00BDF84C002080EA20ADF85A
:1049D0004C00BDF84C00ADF84C00BDF84C002880F0
:1049E000ADF84C70BDF84C00ADF84C00BDF84C0073
:1049F0002080ADF84C70BDF84C00ADF84C00BDF80F
:104A00004C002080C020ADF84C00BDF84C00ADF843
:104A10004C00BDF84C0028801B20ADF84C00BDF8C0
:104A20004C00ADF84C00BDF84C002080ADF84C3087
:104A3000BDF84C00ADF84C00BDF84C002880ADF836
:104A40004C60BDF84C00ADF84C00BDF84C00208027
:104A5000C520ADF84C00BDF84C00ADF84C00BDF8D9
:104A60004C002880ADF84C10BDF84C00ADF84C005F
:104A7000BDF84C002080ADF84C10BDF84C00ADF8EE
:104A80004C00BDF84C002080C720ADF84C00BDF8AC
:104A90004C00ADF84C00BDF84C002880B720ADF8B4
:104AA0004C00BDF84C00ADF84C00BDF84C00208027
:104AB0003620ADF84C00BDF84C00ADF84C00BDF808
:104AC0004C0028804820ADF84C00BDF84C00ADF8F3
:104AD0004C00BDF84C0020803A20ADF84C00BDF8E9
:104AE0004C00ADF84C00BDF84C0028805520ADF8C6
:104AF0004C00BDF84C00ADF84C00BDF84C002080D7
:104B0000ADF84CC0BDF84C00ADF84C00BDF84C0001
:104B10002880ADF84C70BDF84C00ADF84C00BDF8E5
:104B20004C0020801A20ADF84C00BDF84C00ADF8C8
:104B30004C00BDF84C002080B620ADF84C00BDF80C
:104B40004C00ADF84C00BDF84C0028804FF00A0C2A
:104B5000ADF84CC0BDF84C00ADF84C00BDF84C00B1
:104B60002080A220ADF84C00BDF84C00ADF84C0000
:104B7000BDF84C002080F220ADF84C00BDF84C0090
:104B8000ADF84C00BDF84C002880ADF84C70BDF875
:104B90004C00ADF84C00BDF84C0020802620ADF84C
:104BA0004C00BDF84C00ADF84C00BDF84C0028801E
:104BB000ADF84C60BDF84C00ADF84C00BDF84C00B1
:104BC0002080E020ADF84C00BDF84C00ADF84C0062
:104BD000BDF84C0028800F20ADF84C00BDF84C10FB
:104BE000ADF84C10BDF84C1021802A23ADF84C30A4
:104BF000BDF84C10ADF84C10BDF84C1021802821A8
:104C0000ADF84C10BDF84C10ADF84C10BDF84C1080
:104C100021800821ADF84C10BDF84C90ADF84C90B7
:104C2000BDF84C90A4F800904FF00E09ADF84C90F0
:104C3000BDF84C90ADF84C90BDF84C90A4F80090A5
:104C4000ADF84C10BDF84C10ADF84C10BDF84C1040
:104C500021805421ADF84C10BDF84C10ADF84C102B
:104C6000BDF84C102180A921ADF84C10BDF84C10B6
:104C7000ADF84C10BDF84C1021804321ADF84C101C
:104C8000BDF84C10ADF84C10BDF84C102180ADF8BB
:104C90004CC0BDF84C10ADF84C10BDF84C10218044
:104CA000ADF84C00BDF84C10ADF84C10BDF84C10F0
:104CB0002180ADF84C70BDF84C10ADF84C10BDF82B
:104CC0004C102180ADF84C70BDF84C10ADF84C1074
:104CD000BDF84C102180ADF84C70BDF84C10ADF80B
:104CE0004C10BDF84C102180ADF84C70BDF84C1044
:104CF000ADF84C10BDF84C102180E121ADF84C10FE
:104D0000BDF84C10ADF84C10BDF84C102980ADF832
:104D10004C70BDF84C10ADF84C10BDF84C10218013
:104D20001521ADF84C10BDF84C10ADF84C10BDF885
:104D30004C1021801721ADF84C10BDF84C10ADF887
:104D40004C10BDF84C1021800721ADF84C10BDF877
:104D50004C10ADF84C10BDF84C1021801121ADF86D
:104D60004C10BDF84CC0ADF84CC0BDF84CC0A4F818
:104D700000C04FF0060CADF84CC0BDF84CC0ADF80B
:104D80004CC0BDF84CC0A4F800C04FF02B0CADF8DF
:104D90004CC0BDF84C90ADF84C90BDF84C90A4F8C8
:104DA00000904FF05609ADF84C90BDF84C90ADF81E
:104DB0004C90BDF84C90A4F800904FF03C09ADF831
:104DC0004C90BDF84C90ADF84C90BDF84C90A4F8C8
:104DD0000090ADF84C80BDF84C90ADF84C90BDF80B
:104DE0004C90A4F80090ADF84C20BDF84C20ADF8E4
:104DF0004C20BDF84C202280ADF84C00BDF84C2072
:104E0000ADF84C20BDF84C2022803F22ADF84C205C
:104E1000BDF84C90ADF84C90BDF84C90A4F80090C3
:104E2000ADF84C20BDF84C90ADF84C90BDF84C90CE
:104E3000A4F80090ADF84C00BDF84C00ADF84C0063
:104E4000BDF84C002080ADF84CC0BDF84C00ADF86A
:104E50004C00BDF84C002880ADF84C70BDF84C00FB
:104E6000ADF84C00BDF84C002080ADF84C70BDF89A
:104E70004C00ADF84C00BDF84C002080ADF84C6003
:104E8000BDF84C00ADF84C00BDF84C002080ADF8EA
:104E90004C20BDF84C00ADF84C00BDF84C00208013
:104EA000ADF84C30BDF84C00ADF84C00BDF84C00EE
:104EB0002880ADF84C70BDF84C00ADF84C00BDF842
:104EC0004C002080ADF84C70BDF84C00ADF84C00A3
:104ED000BDF84C002080ADF84C70BDF84C00ADF82A
:104EE0004C00BDF84C002080EF20ADF84C00BDF820
:104EF0004C00ADF84C00BDF84C002080ADF84C10D3
:104F0000BDF84C00ADF84C00BDF84C00288078206E
:104F100005F0B6FD2920ADF84C00BDF84C00ADF809
:104F20004C00BDF84C00288003F0F8B9ADF84C00F7
:104F3000BDF84C00ADF84C00BDF84C002880ADF831
:104F40004C60BDF84C00ADF84C00BDF84C00208022
:104F5000FE20ADF84C00BDF84C00ADF84C00BDF89B
:104F60004C002080EE20ADF84C00BDF84C00ADF8B0
:104F70004C00BDF84C002880DE20ADF84C00BDF898
:104F80004C00ADF84C00BDF84C0020802122ADF85B
:104F90004C20BDF84C00ADF84C00BDF84C00208012
:104FA000F120ADF84C00BDF84C00ADF84C00BDF858
:104FB0004C0028800120ADF84C00BDF84C00ADF845
:104FC0004C00BDF84C002080DF20ADF84C00BDF84F
:104FD0004C00ADF84C00BDF84C0028801020ADF816
:104FE0004C00BDF84C00ADF84C00BDF84C002080E2
:104FF000C420ADF84C00BDF84C00ADF84C00BDF835
:105000004C0028808F20ADF84C00BDF84C00ADF866
:105010004C00BDF84C002080C620ADF84C00BDF817
:105020004C00ADF84C00BDF84C0028803946ADF876
:105030004C70BDF84C00ADF84C00BDF84C00208021
:10504000E223ADF84C30BDF84C00ADF84C00BDF893
:105050004C002080ADF84C30BDF84C00ADF84C0051
:10506000BDF84C002080ADF84C30BDF84C00ADF8D8
:105070004C00BDF84C002080BF20ADF84C00BDF8BE
:105080004C00ADF84C00BDF84C002880AA20ADF8CB
:105090004C00BDF84C00ADF84C00BDF84C00208031
:1050A000B020ADF84C00BDF84C00ADF84C00BDF898
:1050B0004C0028800D20ADF84C00BDF84C00ADF838
:1050C0004C00BDF84C002080ADF84C10BDF84C00F1
:1050D000ADF84C00BDF84C0020800D20ADF84C0020
:1050E000BDF84C00ADF84C00BDF84C002080ADF888
:1050F0004C10BDF84C00ADF84C00BDF84C002080C1
:105100001120ADF84C00BDF84C00ADF84C00BDF8D6
:105110004C002080ADF84C10BDF84C00ADF84C00B0
:10512000BDF84C0020801920ADF84C00BDF84C00B3
:10513000ADF84C00BDF84C002080ADF84C10BDF827
:105140004C00ADF84C00BDF84C002080ADF84C2070
:10515000BDF84C00ADF84C00BDF84C002080ADF817
:105160004C10BDF84C00ADF84C00BDF84C00208050
:105170002D20ADF84C00BDF84C00ADF84C00BDF84A
:105180004C002080ADF84C10BDF84C00ADF84C0040
:10519000BDF84C0020803D20ADF84C00BDF84C001F
:1051A000ADF84C00BDF84C002080ADF84C10BDF8B7
:1051B0004C00ADF84C00BDF84C0020805D22ADF8ED
:1051C0004C20BDF84C00ADF84C00BDF84C002080E0
:1051D000ADF84C10BDF84C00ADF84C00BDF84C00DB
:1051E0002080ADF84C20BDF84C00ADF84C00BDF867
:1051F0004C002080ADF84C10BDF84C00ADF84C00D0
:10520000BDF84C002080ADF84CC0BDF84C00ADF8A6
:105210004C00BDF84C0028808020ADF84C00BDF853
:105220004C00ADF84C00BDF84C002080ADF84C109F
:10523000BDF84C00ADF84C00BDF84C0020804FF09C
:105240008B0CADF84CC0BDF84C00ADF84C00BDF86F
:105250004C002080ADF84C10BDF84C00ADF84C006F
:10526000BDF84C0020809627ADF84C70BDF84C007E
:10527000ADF84C00BDF84C002080ADF84C10BDF8E6
:105280004C00ADF84C00BDF84C002080B220ADF8C9
:105290004C00BDF84C00ADF84C00BDF84C00288027
:1052A000ADF84C10BDF84C00ADF84C00BDF84C000A
:1052B0002080ADF84C10BDF84C00ADF84C00BDF8A6
:1052C0004C20204622800223ADF84C30BDF84C2003
:1052D000ADF84C20BDF84C202280ADF84C10BDF844
:1052E0004C20ADF84C20BDF84C202280ADF84C90FD
:1052F000BDF84C20ADF84C20BDF84C200280ADF834
:105300004C10BDF84C20ADF84C20BDF84C2002806C
:10531000B322ADF84C20BDF84C20ADF84C20BDF8C0
:105320004C202A80ADF84C10BDF84C20ADF84C2034
:10533000BDF84C200280ADF84C10BDF84C20ADF803
:105340004C20BDF84C200280ADF84C10BDF84C202C
:10535000ADF84C20BDF84C200280ADF84C10BDF8E3
:105360004C20ADF84C20BDF84C200280ADF84C101C
:10537000BDF84C20ADF84C20BDF84C200280ADF8B3
:105380004C10BDF84C20ADF84C20BDF84C200280EC
:10539000ADF84C10BDF84C20ADF84C20BDF84C20B9
:1053A0000280ADF84C10BDF84C20ADF84C20BDF893
:1053B0004C200280ADF84C10BDF84C20ADF84C20CC
:1053C000BDF84C200280ADF84C10BDF84C20ADF873
:1053D0004C20BDF84C200280ADF84C10BDF84C209C
:1053E000ADF84C20BDF84C200280ADF84C10BDF853
:1053F0004C20ADF84C20BDF84C200280ADF84C108C
:10540000BDF84C20ADF84C20BDF84C200280ADF822
:105410004C10BDF84C20ADF84C20BDF84C2002805B
:10542000ADF84C10BDF84C20ADF84C20BDF84C2028
:105430000280ADF84C10BDF84C20ADF84C20BDF802
:105440004C200280ADF84C10BDF84C20ADF84C203B
:10545000BDF84C200280ADF84C10BDF84C20ADF8E2
:105460004C20BDF84C200280ADF84C10BDF84C200B
:10547000ADF84C20BDF84C200280ADF84C10BDF8C2
:105480004C20ADF84C20BDF84C200280ADF84C10FB
:10549000BDF84C20ADF84C20BDF84C200280ADF892
:1054A0004C10BDF84C20ADF84C20BDF84C200280CB
:1054B000ADF84C10BDF84C20ADF84C20BDF84C2098
:1054C0000280ADF84C10BDF84C20ADF84C20BDF872
:1054D0004C200280B422ADF84C20BDF84C20ADF831
:1054E0004C20BDF84C202A808B22ADF84C20BDF812
:1054F0004C20ADF84C20BDF84C200280ADF84C108B
:10550000BDF84C20ADF84C20BDF84C200280ADF821
:105510004C70BDF84C20ADF84C20BDF84C200280FA
:10552000ADF84C10BDF84C20ADF84C20BDF84C2027
:105530000280A122ADF84C20BDF84C20ADF84C20E3
:10554000BDF84C200280ADF84C10BDF84C20ADF8F1
:105550004C20BDF84C200280B522ADF84C20BDF89F
:105560004C20ADF84C20BDF84C202A80ADF84C30D2
:10557000BDF84C20ADF84C20BDF84C200280ADF8B1
:105580004C10BDF84C20ADF84C20BDF84C200280EA
:10559000ADF84C90BDF84C20ADF84C20BDF84C2037
:1055A0000280ADF84C10BDF84C20ADF84C20BDF891
:1055B0004C2002807246ADF84CE0BDF84C30ADF89E
:1055C0004C30BDF84C300380ADF84C10BDF84C3079
:1055D000ADF84C30BDF84C300380B623ADF84C30FC
:1055E000BDF84C30ADF84C30BDF84C302B80ADF8E8
:1055F0004C10BDF84C30ADF84C30BDF84C30038049
:10560000ADF84C10BDF84C30ADF84C30BDF84C3016
:105610000380B723ADF84C30BDF84C30ADF84C30BA
:10562000BDF84C302B80ADF84C10BDF84C30ADF8C7
:105630004C30BDF84C300380ADF84C10BDF84C3008
:10564000ADF84C30BDF84C3003803F23ADF84C3002
:10565000BDF84C30ADF84C30BDF84C300380ADF89F
:105660004C10BDF84C30ADF84C30BDF84C300380D8
:105670005E23ADF84C30BDF84C30ADF84C30BDF881
:105680004C300380ADF84C10BDF84C30ADF84C30C8
:10569000BDF84C3003806423ADF84C30BDF84C307D
:1056A000ADF84C30BDF84C300380ADF84C10BDF86F
:1056B0004C30ADF84C30BDF84C3003808C23ADF845
:1056C0004C30BDF84C30ADF84C30BDF84C30038058
:1056D000ADF84C10BDF84C30ADF84C30BDF84C3046
:1056E0000380AC23ADF84C30BDF84C30ADF84C30F5
:1056F000BDF84C300380ADF84C10BDF84C30ADF81F
:105700004C30BDF84C300380DC23ADF84C30BDF894
:105710004CC0ADF84CC0BDF84CC0A0F800C0ADF80E
:105720004C10BDF84CC0ADF84CC0BDF84CC0A0F852
:1057300000C04FF0700CADF84CC0BDF84CC0ADF8D7
:105740004CC0BDF84CC0A0F800C0ADF84C10BDF87E
:105750004CC0ADF84CC0BDF84CC0A0F800C04FF034
:10576000900CADF84CC0BDF84CC0ADF84CC0BDF8C5
:105770004CC0A0F800C0ADF84C10BDF84CC0ADF85E
:105780004CC0BDF84CC0A0F800C04FF0EB0CADF819
:105790004CC0BDF84CC0ADF84CC0BDF84CC0A0F832
:1057A00000C0ADF84C10BDF84CC0ADF84CC0BDF811
:1057B0004CC0A0F800C0ADF84C30BDF84C30ADF88E
:1057C0004C30BDF84C300380ADF84C10BDF84C3077
:1057D000ADF84C30BDF84C300380B823ADF84C30F8
:1057E000BDF84C30ADF84C30BDF84C302B80ADF8E6
:1057F0004C10BDF84C30ADF84C30BDF84C30038047
:10580000ADF84C10BDF84C30ADF84C30BDF84C3014
:105810000380ADF84C10BDF84C30ADF84C30BDF8FD
:105820004C300380ADF84C10BDF84C30ADF84C3026
:10583000BDF84C300380ADF84C10BDF84C30ADF8DD
:105840004C30BDF84C300380ADF84C10BDF84C30F6
:10585000ADF84C30BDF84C300380ADF84C10BDF8BD
:105860004C30ADF84C30BDF84C300380ADF84C10E6
:10587000BDF84C30ADF84C30BDF84C300380BA2345
:10588000ADF84C30BDF84C30ADF84C30BDF84C3074
:105890002B802424ADF84C40BDF84C30ADF84C3092
:1058A000BDF84C300380ADF84C10BDF84C30ADF86D
:1058B0004C30BDF84C300380ADF84C10BDF84C3086
:1058C000ADF84C30BDF84C300380ADF84C10BDF84D
:1058D0004C30ADF84C30BDF84C300380C123ADF8EE
:1058E0004C30BDF84C30ADF84C30BDF84C302B800E
:1058F0002023ADF84C30BDF84C30ADF84C30BDF83D
:105900004C300380ADF84C10BDF84C30ADF84C3045
:10591000BDF84C3003805423ADF84C30BDF84C300A
:10592000ADF84C30BDF84C300380ADF84C10BDF8EC
:105930004C30ADF84C30BDF84C300380FF23ADF84F
:105940004C30BDF84C30ADF84C30BDF84C300380D5
:10595000ADF84C10BDF84C30ADF84C30BDF84C30C3
:105960000380C223ADF84C30BDF84C30ADF84C305C
:10597000BDF84C302B800A23ADF84C30BDF84C30CC
:10598000ADF84C30BDF84C300380ADF84C10BDF88C
:105990004C30ADF84C30BDF84C300380ADF84C20A5
:1059A000BDF84C20ADF84C20BDF84C200280ADF87D
:1059B0004C10BDF84C20ADF84C20BDF84C200280B6
:1059C000C322ADF84C20BDF84C20ADF84C20BDF8FA
:1059D0004C202A803C23ADF84C30BDF84C20ADF86B
:1059E0004C20BDF84C200280ADF84C10BDF84C2086
:1059F000ADF84C20BDF84C2002803A22ADF84C2086
:105A0000BDF84C20ADF84C20BDF84C200280ADF81C
:105A10004C10BDF84C20ADF84C20BDF84C20028055
:105A20003922ADF84C20BDF84C20ADF84C20BDF823
:105A30004C200280ADF84C10BDF84C20ADF84C2045
:105A4000BDF84C2002803722ADF84C20BDF84C2028
:105A5000ADF84C20BDF84C200280ADF84C10BDF8DC
:105A60004C20ADF84C20BDF84C200280ADF84C30F5
:105A7000BDF84C20ADF84C20BDF84C200280ADF8AC
:105A80004C10BDF84C20ADF84C20BDF84C200280E5
:105A90003622ADF84C20BDF84C20ADF84C20BDF8B6
:105AA0004C200280ADF84C10BDF84C20ADF84C20D5
:105AB000BDF84C2002803227ADF84C70BDF84C2068
:105AC000ADF84C20BDF84C200280ADF84C10BDF86C
:105AD0004C20ADF84C20BDF84C2002804FF02F092F
